:020000040800F2
:10000000E0130020490100088D0C00089909000840
:10001000890C00087D0600089B1A000800000000FB
:10002000000000000000000000000000291400088B
:100030008106000800000000D3120008C315000864
:100040006301000863010008630100086301000800
:1000500063010008630100086301000863010008F0
:1000600063010008630100086301000863010008E0
:1000700063010008630100086301000863010008D0
:1000800063010008630100086301000863010008C0
:1000900063010008630100086301000863010008B0
:1000A00063010008630100086301000863010008A0
:1000B00063010008251600086301000863010008B9
:1000C0006301000863010008630100086301000880
:1000D00063010008D117000863010008F517000844
:1000E0006301000863010008630100086301000860
:1000F0006301000863010008630100086301000850
:10010000630100086301000863010008630100083F
:10011000630100086301000863010008411600083C
:10012000630100086301000863010008630100081F
:10013000DFF810D000F068F800480047651F00089D
:10014000AFF30080E01300200648804706480047D0
:10015000FEE7FEE7FEE7FEE7FEE7FEE7FEE7FEE777
:10016000FEE7FEE7C51500083101000830B5054679
:100170002A460B4612F8010B13F8014B08B1A042B6
:10018000F8D01CB1002802D06D1CF1E7284630BD24
:10019000CAB2401E10F8011F8A4202D00029F9D1CC
:1001A000002070472DE9F05F0546002092469B46EF
:1001B00088460646814640241BE02846414647467D
:1001C000224600F042F853465A46C01A914110D3D5
:1001D00011461846224600F029F82D1A67EB01084F
:1001E0004F4622460120002100F020F817EB0009BD
:1001F0004E41201EA4F10104DFDC484631462A4668
:100200004346BDE8F09F0000064C074D06E0E0685D
:1002100040F0010394E8070098471034AC42F6D34D
:10022000FFF78AFF7023000890230008202A04DBD0
:10023000203A00FA02F1002070479140C2F12003F9
:1002400020FA03F3194390407047202A04DB203A38
:1002500021FA02F00021704721FA02F3D040C2F1E6
:100260002002914008431946704770B58C1810F869
:10027000015B15F0070301D110F8013B2A1106D1EB
:1002800010F8012B03E010F8016B01F8016B5B1E05
:10029000F9D12B0705D40023521E0DD401F8013BE0
:1002A000FAE710F8013BCB1A921C03E013F8015B4C
:1002B00001F8015B521EF9D5A142D8D3002070BDD0
:1002C000F8B5002700252AE197A001F041FC052F91
:1002D00028D2DFE807F003285282A900701CC6B2BA
:1002E00093A20221002000F0A3FD00F023FF0446AA
:1002F000ACB9012000F0FBFE044664B991A20221D2
:10030000002000F095FD94A20421002000F090FD53
:100310000026012706E0204601F03EF902E02046D3
:1003200001F03AF9F3E0701CC6B290A2022100205D
:1003300000F07EFD88A20421002000F079FD00F08D
:10034000F9FE0446ACB9022000F0D1FE044664B9BF
:100350007CA20221002000F06BFD7FA2042100207E
:1003600000F066FD0026022706E0204601F014F9A1
:1003700002E0204601F010F9C9E081A2022100202C
:1003800000F056FD74A20421002000F051FD00F0A1
:1003900036FF04465CB97FA20221002000F048FD30
:1003A0006DA20421002000F043FD032710E001F0BE
:1003B00069FD7DA20221002000F03AFD66A2042121
:1003C000002000F035FD204601F0E6F80026002769
:1003D0004FF4FA7001F092FD99E078A2022100201A
:1003E00000F026FD5CA20421002000F021FD4FF466
:1003F000FA7001F083FD00F01FFF04465CB974A29F
:100400000221002000F014FD53A20421002000F07E
:100410000FFD042703E00027204601F0BDF84FF44C
:100420007A7001F06BFD72E06EA20021084600F0C8
:10043000FFFC70A20221002000F0FAFC72A204214D
:10044000002000F0F5FC26E0002000F0AFFB73492F
:10045000087008460078022805D100200870002D99
:1004600001DD681EC5B26D480078042806D1002061
:100470006A490870632D01DA681CC5B268A20621BA
:10048000282000F0D5FC012002232A4606210090F6
:10049000412000F09BFD614800780328D4D1002062
:1004A0005E4908702946022000F0E3FE0446002C55
:1004B00026D100F02FFC5BA20221002000F0B8FC46
:1004C00025A20421002000F0B3FC40F2DC5001F032
:1004D00015FD00F01FFC58A20021084600F0A8FC02
:1004E0005AA20221102000F0A3FC5CA204211020DB
:1004F00000F09EFC5DA20621102000F099FCF8BDE2
:1005000000F008FC0027204601F046F800BF00BFBD
:100510004FF4C87001F0F2FC0A2E00D100E0D3E6DF
:1005200000BF00BFEBE7000066616C736500000070
:1005300020202020C7EBB0B4CAD6D6B82020202077
:100540000000000020202020D6B8CEC6D5FDB3A3E1
:10055000202020200000000020202020202020201B
:10056000202020202020202000000000202020C764
:10057000EBD4D9B0B4D2BBB4CE2020200000000010
:100580002020B6D4B1C8C1BDB4CED6B8CEC62020C6
:100590000000000020202020B6D4B1C8B3C9B9A6FD
:1005A000202020200000000020202020B6D4B1C848
:1005B000CAA7B0DC20202020000000002020C9FABB
:1005C000B3C9D6B8CEC6C4A3B0E520200000000051
:1005D000C9FAB3C9D6B8CEC6C4A3B0E5B3C9B9A6E3
:1005E0000000000020B0B44B34BCD32CB0B44B326C
:1005F000BCF5200020202020B0B44B33B1A3B4E6DA
:1006000020202020000000002020303D3C204944D4
:10061000203C3D393920202000000000B70C00208C
:1006200049443D002020C2BCC8EBD6B8CEC6B3C9F1
:10063000B9A6202000000000D6B8CEC6C4A3BFE9EA
:10064000B2E2CAD4B3CCD0F2000000004B31BCFC03
:10065000CCEDBCD3D6B8CEC6000000004B33BCFCFA
:10066000C9BEB3FDD6B8CEC6000000004B35BCFCF9
:10067000D1E9D6A4D6B8CEC60000000000BFFEE780
:100680007047000038B5002445A20021084600F05C
:10069000CFFB48A20221002000F0CAFB4AA204219D
:1006A000002000F0C5FB46E0002000F07FFA4B4937
:1006B000087008460078022805D100200870002C38
:1006C00001DD601E84B245480078042806D1002070
:1006D00042490870632C01DA601C84B23F480078FC
:1006E000012800D141E03D480078052816D10020BE
:1006F0003A49087000F0DEFC05463DB900F00AFBFF
:1007000037A20221002000F093FB02E0284600F00F
:1007100043FF40F2DC5001F0F1FB26E035A2062158
:10072000282000F085FB01200223224606210090AC
:10073000412000F04BFC294800780328B4D1012166
:10074000204600F081FC05463DB900F0E3FA2AA2FC
:100750000221002000F06CFB02E0284600F01CFFA4
:1007600040F2DC5001F0CAFB00BF00F0D3FA27A230
:100770000021084600F05CFB29A20221102000F0B5
:1007800057FB2BA20421102000F052FB2CA20621C3
:10079000102000F04DFB00201049087038BD00000B
:1007A0004B34BCD3204B32BCF5204B33C8B7C8CF39
:1007B0000000000020204B35C7E5BFD5D6B8CEC617
:1007C000BFE22020000000004B31B7B5BBD820307D
:1007D0003D3C49443C3D393900000000B70C002045
:1007E00020C7E5BFD5D6B8CEC6BFE2B3C9B9A620EB
:1007F0000000000049443D002020C9BEB3FDD6B82A
:10080000CEC6B3C9B9A6202000000000D6B8CEC617
:10081000C4A3BFE9B2E2CAD4B3CCD0F20000000056
:100820004B31BCFCCCEDBCD3D6B8CEC6000000002A
:100830004B33BCFCC9BEB3FDD6B8CEC60000000029
:100840004B35BCFCD1E9D6A4D6B8CEC6000000001A
:10085000044900E0521C11F8013B002BFAD150086A
:1008600070470000E80B00202DE9F041024600250A
:100870000026002000230024002791F803C00CF07C
:100880000F0591F803C00CF0100CBCF1000F03D061
:1008900091F802C04CEA050591F800C0BCF1000FC8
:1008A00031D0146800202BE04FF0010C0CFA00F35B
:1008B000B1F800C00CEA03069E4220D183004FF03D
:1008C0000F0C0CFA03F7BC4305FA03FC4CEA0404D2
:1008D00091F803C0BCF1280F06D14FF0010C0CFABF
:1008E00000FCC2F814C00AE091F803C0BCF1480F44
:1008F00005D14FF0010C0CFA00FCC2F810C0401CEE
:100900000828D1D31460B1F800C0BCF1FF0F34DD6A
:10091000546800202EE000F1080C4FF0010808FA9E
:100920000CF3B1F800C00CEA03069E4221D183000B
:100930004FF00F0C0CFA03F7BC4305FA03FC4CEA2A
:10094000040491F803C0BCF1280F05D100F1080C94
:1009500008FA0CF8C2F8148091F803C0BCF1480FF3
:1009600007D100F1080C4FF0010808FA0CF8C2F8A2
:100970001080401C0828CED35460BDE8F0810246A8
:10098000002093680B400BB1012000E0002070476D
:10099000416170470161704700BFFEE7002001E040
:1009A000411CC8B20A28FBDB7047000008B50121D2
:1009B000102000F0AFFC4FF48070ADF80000032071
:1009C0008DF8020014208DF8030069460648FFF7F1
:1009D0004BFF4FF40070ADF8000069460248FFF786
:1009E00043FF00F01DF808BD0010014010B50120C4
:1009F000094908600949C1F8A001FFF7CFFF0020AD
:100A000005490860FFF7CAFF00200449C1F8A001AA
:100A1000FFF7C4FF10BD0000A401224200002242E3
:100A200010B500200549086001200549C1F8A00162
:100A3000FFF7B4FF01200149086010BDA401224264
:100A40000000224210B501200D490860FFF7A6FF03
:100A500001200C49C1F8A001FFF7A0FF4FF400717D
:100A60000948FFF78CFF08B1012400E000240020B2
:100A70000349091F0860FFF791FF204610BD0000E1
:100A8000A401224200002242001001407CB505462C
:100A9000EF208DF8000001208DF801001A48006851
:100AA000000E8DF8020018480068000C8DF8030055
:100AB00015480088000A8DF80400134800788DF866
:100AC000050007208DF8060000208DF807000F496B
:100AD000088012E0012001F011FA0C48008800F4AF
:100AE000004050B100200949088069460848FFF7D6
:100AF0003DFB04460CB120467CBD681E80B2051E3D
:100B0000E8D100BFF8E70000AC0C0020B80C0020D2
:100B1000BC0C002008B50121142000F0FBFB0120D3
:100B2000ADF8000048208DF8030069461C48FFF727
:100B30009BFE0220ADF8000048208DF803006946B6
:100B40001748FFF791FE0420ADF8000048208DF80B
:100B5000030069461248FFF787FE0820ADF8000041
:100B600048208DF8030069460D48FFF77DFE0120FF
:100B7000ADF8000048208DF8030069460948FFF7EA
:100B800073FE4FF48070ADF8000003208DF8020072
:100B900010208DF8030069460348FFF765FE08BD85
:100BA0000010014000080140000C014010B504464F
:100BB00014B101202A49087029480078002833D050
:100BC0002848006870B12748001D006850B12548CA
:100BD0000830006830B123480C30006810B122485A
:100BE000006808BB0A2001F089F900201C49087040
:100BF0001C48006808B9012010BD1A48001D006893
:100C000008B90220F8E717480830006808B903203F
:100C1000F2E714480C30006808B90420ECE71248E9
:100C20000068D0B90520E7E70E480068012814D114
:100C30000C48001D006801280FD10A4808300068E0
:100C400001280AD107480C300068012805D1064860
:100C50000068012801D1024908700020CCE700009B
:100C6000B60C0020000122420001214200BF0549CC
:100C7000098801F040010029F9D00249091D0880C6
:100C8000704700000048004000BFFEE770470000CA
:100C900070B5002100230F22C47804B3154C2468DA
:100CA00004F4E064C4F5E064210AC1F10403CA401D
:100CB000447804FA03F184781440214309010E4C6E
:100CC0000678A155047804F01F050124AC4005788E
:100CD0006D11AD0005F1E025C5F8004109E004788B
:100CE00004F01F050124AC40044D0678761145F848
:100CF000264070BD0CED00E000E400E080E100E083
:100D000002490143024A1160704700000000FA05E1
:100D10000CED00E010B5002000F001F810BD70B53A
:100D20000646002415E004F1B001C8B200F0E4FE6C
:100D3000002000F0E1FE102000F0DEFE002504E0BF
:100D4000304600F0EFFE681CC5B2822DF8DB601C57
:100D5000C4B2082CE7DB70BD10B5FFF727FEAE204C
:100D600000F0CAFE002000F0C7FE102000F0C4FE14
:100D7000402000F0C1FEB02000F0BEFE812000F057
:100D8000BBFEFF2000F0B8FEA12000F0B5FEA620BB
:100D900000F0B2FEA82000F0AFFE3F2000F0ACFE55
:100DA000C82000F0A9FED32000F0A6FE002000F02D
:100DB000A3FED52000F0A0FE802000F09DFED820EC
:100DC00000F09AFE052000F097FED92000F094FE76
:100DD000F12000F091FEDA2000F08EFE122000F0EB
:100DE0008BFEDB2000F088FE302000F085FE8D2099
:100DF00000F082FE142000F07FFEAF2000F07CFEA9
:100E000010BD70B504460D4605F1B001C8B200F042
:100E100073FEA11CC1F3031141F0100000F06CFE41
:100E2000A11C01F00F0141F0010000F065FE70BD52
:100E30002DE9F047074688461646002580E03078C1
:100E4000A02843DD00253AE0702F04DD002708F1DB
:100E5000020000F0FF0830783C4911F81510884274
:100E60002CD17078012101EB4501384A515C884250
:100E700024D141463846FFF7C4FF002406E004EBC6
:100E80004511334A505C00F04DFE641C102CF6D323
:100E900008F10100C1B23846FFF7B3FF002407E0B4
:100EA00004EB451110312A4A505C00F03BFE641CF3
:100EB000102CF5D307F11000C7B204E06D1C2548D3
:100EC00000688542C0D300BFB61C39E07A2F04DD2C
:100ED000002708F1020000F0FF0831781E48FFF7F4
:100EE00057F98146B9F1000F29D041463846FFF73E
:100EF00088FF002409E099F80010203904EB011163
:100F0000164A505C00F00EFE641C082CF3D308F166
:100F10000100C1B23846FFF774FF00240AE099F8D7
:100F20000010203904EB011108310C4A505C00F02C
:100F3000F9FD641C082CF2D307F10800C7B2761C37
:100F4000307800287FF47BAFBDE8F087E80B002005
:100F500028060020A80C0020450C002038000020A6
:100F60002DE9F04107460E46904600250024A8F1E1
:100F70002000C5B2812F02DD0027B01CC6B2314669
:100F80003846FFF73EFF002407E004EB05110E4A48
:100F9000505C00F0C7FD601CC4B2082CF5DB701C6F
:100FA000C1B23846FFF72DFF002408E004EB05111D
:100FB0000831054A505C00F0B5FD601CC4B2082C35
:100FC000F4DBBDE8F0810000380000202DE9F04797
:100FD0000546894690461E46DDF820A000242FE0F5
:100FE000301B401EC1B20A2001F050F8B8FBF0F0EF
:100FF0000A21B0FBF1F201FB1207A7B9BAF1000F09
:1010000008D0082101FB0451C8B230224946FFF73D
:10101000A7FF07E0082101FB0451C8B2202249467E
:10102000FFF79EFF0AE007F13001CAB2082101FB79
:101030000451C8B24946FFF793FF00BF601CC4B219
:10104000B442CDDBBDE8F0872DE9F04104460D4602
:1010500000F015FA00F0EAF9012000F00AFA072082
:1010600000F015FA0C2000F01CFA2012FFF7FEFD2C
:10107000E0B2FFF7FBFD2812FFF7F8FDE8B2FFF73B
:10108000F5FD142000EB2420E1B2084400EB2520FC
:10109000E9B200EB0108404600F0E2F94FF4FA60D3
:1010A000FFF7F4FC07460FB17E7A00E0FF263046DA
:1010B000BDE8F08170B500F0E2F900F0B7F9012069
:1010C00000F0D7F9032000F0E2F90D2000F0E9F973
:1010D0001126304600F0C4F94FF4FA60FFF7D6FC51
:1010E00005460DB16C7A00E0FF24204670BD2DE965
:1010F000F041054600F0C3F900F098F9012000F036
:10110000B8F9042000F0C3F9022000F0CAF928461B
:10111000FFF7ACFDEF1D384600F0A2F94FF4FA607E
:10112000FFF7B4FC06460EB1747A00E0FF242046B7
:10113000BDE8F08170B500F0A2F900F077F9012068
:1011400000F097F9032000F0A2F9012000F0A9F9BE
:101150000526304600F084F94FF4FA60FFF796FC5C
:1011600005460DB16C7A00E0FF24204670BD2DE9E4
:10117000F04781460D4616461F4600F080F900F004
:1011800055F9012000F075F9082000F080F91B20C6
:1011900000F087F94846FFF769FD2812FFF766FD62
:1011A000E8B2FFF763FD3012FFF760FDF0B2FFF722
:1011B0005DFD09F1240000EB2520E9B2084400EBB5
:1011C0002620F1B200EB010A504600F049F94FF435
:1011D000FA60FFF75BFC044664B194F80980E07A9A
:1011E000A17A00EB01203880607B217B00EB01209D
:1011F000788001E04FF0FF084046BDE8F08770B509
:1012000000F03DF900F012F9012000F032F903205E
:1012100000F03DF9032000F044F90726304600F0C5
:101220001FF94FF4FA60FFF731FC05460DB16C7AF7
:1012300000E0FF24204670BD70B500F020F900F0FA
:10124000F5F8012000F015F9032000F020F9052041
:1012500000F027F90926304600F002F94FF4FA6051
:10126000FFF714FC05460DB16C7A00E0FF24204620
:1012700070BD2DE9F04106460C4600F000F900F083
:10128000D5F8012000F0F5F8062000F000F906205E
:1012900000F007F93046FFF7E9FC2012FFF7E6FC03
:1012A000E0B2FFF7E3FC06F10D0000EB2420E1B211
:1012B00000EB0108404600F0D3F84FF4FA60FFF766
:1012C000E5FB07460FB17D7A00E0FF252846BDE823
:1012D000F081704729B1064AD2690243044BDA61B2
:1012E00004E0034AD2698243014BDA61704700008F
:1012F0000010024029B1064A12690243044B1A61E8
:1013000004E0034A12698243014B1A6170470000EE
:101310000010024029B1064A92690243044B9A61C7
:1013200004E0034A92698243014B9A6170470000CE
:101330000010024029B1064AD2680243044BDA6029
:1013400004E0034AD2688243014BDA607047000030
:101350000010024030B500210022002400232D4D52
:101360006D6805F00C0121B1042905D0082923D1AD
:1013700005E0294D056022E0274D05601FE0254D61
:101380006D6805F47012234D6D6805F480340225F4
:1013900005EB92421CB9214D554305600BE01D4DF4
:1013A0006D6805F400351DB11C4D5543056002E024
:1013B000194D5543056002E0174D056000BF00BFA1
:1013C000144D6D6805F0F0010909154D6B5C056859
:1013D000DD4045600F4D6D6805F4E061090A104D70
:1013E0006B5C4568DD4085600A4D6D6805F46051B1
:1013F000C90A0B4D6B5C4568DD40C560054D6D68E5
:1014000005F44041890B074D6B5CC568B5FBF3F5EE
:10141000056130BD0010024000127A0000093D0055
:1014200022000020320000207047000010B50B4958
:101430000968080EFFF71AFC08480068C0F3074067
:10144000FFF714FC05480088C0F30720FFF70EFCE7
:1014500002490878FFF70AFC10BD0000AC0C002020
:1014600010B504462012FFF701FCE0B2FFF7FEFBC7
:1014700010BD10B504462046FFF7F8FB10BD10B5AF
:10148000EF20FFF7F3FB0120FFF7F0FB10BD10B5D5
:101490000446C4F30720FFF7E9FBE0B2FFF7E6FBE1
:1014A00010BD10B504462046FFF7E0FB10BD10B597
:1014B00000F002F810BD00000CB500200190009073
:1014C0003348006840F480303149086000BF30483C
:1014D000006800F4003000900198401C01900098D2
:1014E00018B90198B0F5A06FF1D12948006800F44F
:1014F000003010B10120009001E000200090009821
:10150000012843D12348006840F0100021490860B9
:101510000846006820F0030008600846006840F0B4
:10152000020008601A484068194948600846406847
:1015300048600846406840F480604860084640685B
:1015400020F47C1048600846406840F4E810486089
:101550000846006840F08070086000BF0C480068D2
:1015600000F000700028F9D00948406820F003001E
:10157000074948600846406840F00200486000BFE4
:101580000348406800F00C000828F9D10CBD0000A9
:1015900000100240002002407047042808D14FF09C
:1015A000E021096941F004014FF0E022116107E0F8
:1015B0004FF0E021096921F004014FF0E0221161B0
:1015C0007047704710B51348006840F0010011499A
:1015D000086008464068104908400E4948600846BF
:1015E00000680E4908400B4908600846006820F46E
:1015F000802008600846406820F4FE0048604FF4F0
:101600001F008860FFF753FF4FF000600449086037
:1016100010BD0000001002400000FFF8FFFFF6FEC2
:1016200008ED00E010B50121044800F062F818B19F
:101630000121024800F04EF810BD000000040040F7
:1016400010B50121094800F054F868B10848008835
:1016500040F40040064908800121044800F03AF8AF
:101660000021024800F039F810BD000000140040CD
:10167000B80C00207FB505460C4601212020FFF75D
:1016800029FEADF80450ADF800400020ADF806008A
:10169000ADF8020069460E4800F048F801221146F4
:1016A0000B4800F037F80121094800F016F8372000
:1016B0008DF80C0000208DF80D0002208DF80E0032
:1016C00001208DF80F0003A8FFF7E2FA7FBD0000AC
:1016D00000140040CA430282704721B1028842F0E0
:1016E0000102028004E002884FF6FE731A40028075
:1016F000704730B50246002000230024158A05EA11
:101700000103958905EA010413B10CB1012000E041
:10171000002030BD1AB183890B43838102E08389A5
:101720008B438381704781847047000000220288C8
:101730001D4B98420ED01D4B98420BD0B0F1804FFC
:1017400008D01B4B984205D01A4B984202D01A4B36
:10175000984204D14FF68F731A404B881A43174BA7
:10176000984207D0164B984204D04FF6FF431A40D8
:10177000CB881A4302808B8883850B8803850A4BAC
:1017800098420BD0094B984208D00E4B984205D096
:101790000D4B984202D00D4B984201D10B7A038633
:1017A0000123838270470000002C01400034014077
:1017B0000004004000080040000C00400010004001
:1017C0000014004000400140004401400048014036
:1017D00010B540F22551054800F09EF828B10348A5
:1017E00000F056F9C4B20248047010BD0038014040
:1017F0000000002010B540F22551164800F08CF88A
:10180000F8B1144800F044F9C4B21348008800F459
:101810000040B0B910480088B0F5C87F12DA002146
:101820000E48FFF780FF0C48008818B901210B48CB
:10183000FFF753FF08490888411C074A11800849EF
:101840000C5405E00448008840F400400249088038
:1018500010BD000000480040B80C002000140040FB
:10186000BC0C002021B1828942F40052828104E044
:1018700082894DF6FF731A408281704710B5044685
:101880002048844209D101218803FFF753FD00213C
:101890004FF48040FFF74EFD32E01B48844209D1EF
:1018A00001214804FFF726FD00214FF40030FFF727
:1018B00021FD25E01548844209D101218804FFF764
:1018C00019FD00214FF48020FFF714FD18E01048A7
:1018D000844209D10121C804FFF70CFD00214FF417
:1018E0000020FFF707FD0BE00A48844208D10121E0
:1018F0000805FFF7FFFC00214FF48010FFF7FAFC0A
:1019000010BD000000380140004400400048004085
:10191000004C00400050004070B5024600240023F7
:101920000025002040F66A16B14200D100BFC1F385
:10193000421501F01F03012606FA03F3012D02D11F
:101940009689334006E0022D02D1168A334001E029
:10195000968A33400C12012606FA04F416883440A5
:1019600013B10CB1012000E0002070BDF0B50346BA
:10197000002400260025002040F66A17B94200D155
:1019800000BF1846C1F3421401F01F06012707FAF1
:1019900006F5012C01D10C3004E0022C01D11030ED
:1019A00000E014301AB107682F43076002E00768AF
:1019B000AF430760F0BD00002DE9F04786B0054653
:1019C0000E460024A24600BFA1460027B08900B100
:1019D00000BF2F462C8A4CF6FF700440F088044369
:1019E0002C82AC894EF6F3100440B088318908434C
:1019F000718908430443AC81AC8A4FF6FF40044030
:101A0000B0890443AC8201A8FFF7A4FC1F488742B9
:101A100002D1DDF810A001E0DDF80CA0A88900F4E7
:101A2000004040B10AEBCA0000EB0A1031684900DF
:101A3000B0FBF1F807E00AEBCA0000EB0A103168CE
:101A40008900B0FBF1F86420B8FBF0F00401200934
:101A5000642101FB1089A88900F4004040B13220C4
:101A600000EBC900B0FBF1F000F00700044308E010
:101A7000322000EB09106421B0FBF1F000F00F0000
:101A800004432C8106B0BDE8F08700000038014017
:101A900001468888C0F30800704700BFFEE70000D9
:101AA00070B50446002520E004F0800018B1012044
:101AB0000F49086002E000200D490860FEF76EFF44
:101AC00001200B49091F0860FEF768FF0020094943
:101AD000C1F8A001072D02D1012005490860600668
:101AE000040EFEF75BFF681CC5B2082DDCDB70BD81
:101AF000A40122420000224210B50446FEF776FF00
:101B00007820FFF7CDFFFEF79DFF0020FFF7C8FF0D
:101B1000FEF798FF2046FFF7C3FFFEF793FFFEF79F
:101B20007FFF10BD10B50446FEF760FF7820FFF779
:101B3000B7FFFEF787FF4020FFF7B2FFFEF782FFF7
:101B40002046FFF7ADFFFEF77DFFFEF769FF10BDF2
:101B50000FB4054B10B503A9044A029800F02CF805
:101B600010BC5DF814FB0000491F00081C00002099
:101B70000FB4084B10B504A902AA039800F01CF892
:101B8000044602A9002000F077F9204610BC5DF859
:101B900014FB0000791E000802E008C8121F08C1EB
:101BA000002AFAD170477047002001E001C1121FDE
:101BB000002AFBD1704700002DE9FF4F8DB09B46F6
:101BC0000F460446002606E025280BD05A460F99FA
:101BD0009047641C761C20780028F5D111B030465F
:101BE000BDE8F08F0025A8460122984900E0054392
:101BF00014F8013F203B02FA03F00842F7D12078A5
:101C00002E2817D114F8010F45F004052A280ED00C
:101C10006FF02F022078A0F1300109290AD808EBD3
:101C2000880102EB410100EB0108641CF2E757F860
:101C3000048B641C20786C280DD004DC4C2812D056
:101C40006A2811D104E074280DD07A280CD10AE05A
:101C500045F4001507E0617845F48015814202D112
:101C6000641C05F58015641C2078692844D008DCC4
:101C70000028B3D0582867D063280FD0642808D133
:101C80003AE0702865D0732812D075285AD0782889
:101C90005AD05A460F999047761CD5E017F8040B96
:101CA0008DF8000000208DF80100E946012003E0D6
:101CB00057F8049B4FF0FF3069074FF0000501D43F
:101CC0000AE06D1C45450DDA8542FADB19F805106E
:101CD0000029F6D106E06D1C8542FCDB19F80510E1
:101CE0000029F8D12E4404E019F8010B5A460F9947
:101CF00090476D1EF8D2A7E00A200021CDE9080127
:101D0000C5F3025002280CD001CFC117021E71F199
:101D100000020CDA0023D0EB030063EB01012D225B
:101D200008E0FF1D27F00707F7E80201EEE72A05A4
:101D300004D52B228DF8282001223CE0EA073AD076
:101D40002022F7E70A2000E010200021CDE9080159
:101D500007E01020002145F00405CDE908014FF00F
:101D60000808C5F30250022810D001CF00214FF01F
:101D7000000A2A0720D52278702A0DD0DDE908C391
:101D80008CF0100C5CEA030C0CD015E0FF1D27F062
:101D90000707F7E80201EAE740228DF828204FF014
:101DA000010A0CE050EA010306D030238DF82830F8
:101DB0008DF82920022292462278582A04D024A2A3
:101DC0000DF120090B9209E026A2F9E7DDE90823CD
:101DD000FEF7E8F90B9B9B5C09F8013D50EA010214
:101DE000F4D1ADEB090020300890680701D44FF022
:101DF00001080899884503DD0898A8EB000000E079
:101E000000208046002506E00AA85A46405D0F994A
:101E100090476D1C761C5545F6DB04E030205A4691
:101E20000F999047761CB8F10001A8F10108F5DC84
:101E300005E019F8010B5A460F999047761C08994E
:101E4000481E08900029F4DC641CC4E6092801003F
:101E50003031323334353637383961626364656620
:101E600000000000303132333435363738394142E2
:101E700043444546000000000A68531C0B60107084
:101E80007047000010B5002400BF4FF4807109486E
:101E9000FEF780FD642000F031F84FF480710548B2
:101EA000FEF776FD642000F029F8601C84B20A2C4D
:101EB000EBDB10BD000C014010B56FF00400FFF724
:101EC0006CFB0A4800680A49B0FBF1F00949087048
:101ED0000846007800EB4001C1EBC0104FF6FF71DF
:101EE00001EAC0000449088010BD00000400002081
:101EF00000127A00180000201A0000200146114A42
:101F000012884A434FF0E0235A6100229A611A4630
:101F1000126942F001021A6100BF4FF0E02210691D
:101F200000F001021AB100F48032002AF5D04FF01F
:101F3000E022126922F001024FF0E0231A61002230
:101F40009A6170471A00002000BF054A128802F00B
:101F50004002002AF9D0C2B2014B1B1D1A80704703
:101F600000380140FEF774FC304908604FF4A0606F
:101F7000FEF7C6FEFFF7A0FF4FF4614000F090F9B6
:101F80004FF4E13000F03CF9FEF7C4FDFEF7E4FE4B
:101F9000FEF7C0FE26A200210846FEF749FF29A24F
:101FA00002211020FEF744FF2AA204211020FEF790
:101FB0003FFF2CA206211020FEF73AFF34E02D4807
:101FC00001782DA0FFF7C4FD2A480078302801D100
:101FD000FFF758FF0020FEF7E9FD28490870084682
:101FE0000078012805D100200870FEF793FEFEF767
:101FF00067F922480078032806D100201F4908709D
:10200000FEF788FEFEF73EFB1C48007805280BD142
:1020100000201A490870FEF77DFE19A20221202037
:10202000FEF706FF00F03EF8C9E70000A80C00200C
:10203000D6B8CEC6C4A3BFE9B2E2CAD4B3CCD0F2FC
:10204000000000004B31BCFCCCEDBCD3D6B8CEC6F2
:10205000000000004B33BCFCC9BEB3FDD6B8CEC6F1
:10206000000000004B35BCFCD1E9D6A4D6B8CEC6E2
:10207000000000000000002025630000B70C0020D5
:10208000C7EBB0B4CAD6D6B80000000010B50246FF
:10209000012000E050430B1EA1F10104E1B2F9D18F
:1020A00010BD000010B586B032A0FFF751FD44E02E
:1020B0000020FEF77BFD31490870FFF73BF804462E
:1020C000002C3AD10120FFF712F80446002C2DD144
:1020D00005AB632200210120FFF749F80446D4B97B
:1020E00027A202210020FEF7A3FEBDF81630BDF89E
:1020F000142028A16846FFF73BFD6A460421002012
:10210000FEF796FE40F2DC50FFF7F8FE40F2DC509E
:10211000FFF7F4FE0AE0FFF7B5FE22A2022120201D
:10212000FEF786FE40F2DC50FFF7E8FEFEF7F2FD18
:102130001FA202212020FEF77BFE10480078012814
:10214000B6D1FEF7E7FD1DA200210846FEF770FE9E
:102150001FA202211020FEF76BFE21A204211020F5
:10216000FEF766FE22A206211020FEF761FE06B0F1
:1021700010BD00007472756500000000B70C0020EF
:102180002020D6B8CEC6D1E9D6A4B3C9B9A620209E
:10219000000000002049443A256420B5C3B7D63A70
:1021A00025642000D1E9D6A4CAA7B0DC0000000055
:1021B000C7EBB0B4CAD6D6B800000000D6B8CEC6B9
:1021C000C4A3BFE9B2E2CAD4B3CCD0F2000000008D
:1021D0004B31BCFCCCEDBCD3D6B8CEC60000000061
:1021E0004B33BCFCC9BEB3FDD6B8CEC60000000060
:1021F0004B35BCFCD1E9D6A4D6B8CEC60000000051
:1022000010B586B00446012144F20400FFF782F8BD
:102210004FF40070ADF8140003208DF8160018205C
:102220008DF8170005A91C48FEF71EFB4FF48060CF
:10223000ADF8140004208DF8170005A91648FEF724
:1022400013FB25208DF8000003208DF801008DF888
:10225000020001208DF803006846FEF719FD019485
:102260000020ADF80800ADF80A00ADF80C00ADF89C
:1022700010000C20ADF80E0001A90848FFF79CFBE8
:10228000012240F225510548FFF770FB0121034868
:10229000FFF7E8FA06B010BD000801400038014021
:1022A00010B586B0044601210820FFF733F801215C
:1022B0008804FFF70FF82A48FFF7E0FA4FF4806030
:1022C000ADF8100003208DF8120018208DF81300CF
:1022D00004A92448FEF7C8FA4FF40060ADF81000D6
:1022E00004208DF8130004A91E48FEF7BDFA0094DF
:1022F0000020ADF80400ADF80600ADF80800ADF818
:102300000C000C20ADF80A0069461548FFF754FB95
:1023100001211348FFF7A6FA012240F22551104887
:10232000FFF724FB27208DF8140002208DF81500FC
:1023300003208DF8160001208DF8170005A8FEF780
:10234000A7FC41F61F416320FFF794F900200649DE
:10235000088000210548FFF7C0F906B010BD000055
:1023600000480040000C0140B80C00200014004060
:102370009023000800000020BC0C00006A02000846
:102380007C2C0008BC0C002024070000A81B0008BF
:102390005184A24A04E0090102030406070809293E
:1023A00016691A05150204060872F852331C100C3F
:1023B0000603912C40C07803112C043F04032136FE
:1023C0007088FC0830261820FF211E14F008F03316
:1023D000E0184D211C031E11338870000C101E21C3
:1023E00023241927211010160E45E0180402250792
:1023F0001820403D020418E0692C201807071740F8
:1024000080F08040403F0202010F0102283AF0CAEA
:102410001C01011F04912B80B066A9EB4901912A90
:1024200030A5592C146018043C6018061D1EE010DD
:10243000080810721F0F102020100FF05310F836EC
:1024400020203F20203C700808C21E302824222172
:10245000441E3008888848082E1820202011CC3BC4
:10246000C0203227070424243F241AF82023080818
:102470004B19212036E0108888184B0F11101E3898
:102480000808C8382021523F1A702E29608F1C225C
:102490002121221C90111D31222211901961CAC0E4
:1024A000C26A80C659081C40201050170102040857
:1024B00010204A4001114A04012119152A403219FD
:1024C000251B0402F21B7048D13AF0501A360F1E39
:1024D000C030C828E87028080718272423140B6F79
:1024E0002A387E280D203C23020227382008F8884D
:1024F000889F4B203FF01BC0303F1B08383019101D
:1025000019781B08F80F194039201B100F103E884E
:1025100088E8081010AC23201810112A035E294007
:10252000223829402C221E024019A41809F808203C
:102530003F21010121252A085229812942414911BF
:102540002EC08080807F0E2FF888C0281808501C6D
:102550000126382F2940292F29801B20301012F8FE
:102560001AF81413203F190229204B30C0601A209A
:1025700074123F4BE010B06B0F10B029D01AF0303E
:102580001980220179203F18242438504FC04C88EC
:102590008870C0140C30204B7088C117382021215E
:1025A000221C3A189F4A188239A049D0112A1F903C
:1025B000121F240878881BC838151C07380E6019AC
:1025C0001A1AF8201114033C0714073C0348140896
:1025D0001868808068180820302C03032C302008ED
:1025E00038C82F5950298F29102F20382621202014
:1025F000681145FE020202257F4040401A0CE0614E
:102600001C0106380B191D42FE191D527F1A0412B7
:102610000211045A80011930D91D391621180819E0
:10262000242222223F20AB390F115F3F11202011BD
:102630000E21311A0E104B2011104B88F8102A1061
:10264000B359401A1F3F2B22130F16F088888818A1
:102650001A20D029D1497A21176B94949493603928
:1026600060190F4C203F21F354809898793059120B
:102670001AC02719D1193039311F203F24022D30BB
:10268000212A0812893069D7294B2903190BC960FF
:1026900079A019BF2B201FDD390F9C80FFA1E01905
:1026A0001229D03BA0FF0C3950194112208A01C0D9
:1026B0001B3324012A190F3AE0413952290F3923DB
:1026C00049603C103F202C29053F010E30080601CF
:1026D00070291038080F300C030C300F2C49A14E14
:1026E000312E0E31200C29621D818E70183059D187
:1026F000215721302C22213055807C0202443F405A
:102700004072FF39083C02027C8F5440403F4E0229
:10271000010202042F4117101010FF109010093F02
:10272000484844444442701D0444827F662BFF495C
:10273000011941200F2030AC63100808F8090E0879
:10274000F80808180E2267221292804021160816F7
:10275000214088200F1010D0FF9014E4AFA4A4A44F
:10276000AFE4041B040377100B894B2A1A0E1A2AB4
:102770004B888019F61808FF2020080808FF041A63
:10278000F870100F30100F884821110D030D112122
:102790004181151060028C16FE02F202FE2AF8B189
:1027A000100B04047E018047300F10272C47807FD8
:1027B000B71342CC2A90013EFF10111610E6100C00
:1027C0001028603F1010010E3040F0172424A4FEA2
:1027D00023222B3E2201223E1808080601FF010693
:1027E00040BD1A7F043241100EFC04040414155637
:1027F0009454341404041440300F1F01010141812A
:102800007F061B050310180EEF242480E49C10544F
:1028100054FF547C101C480E7F2151261827444534
:10282000455F454544A0380B109252321E325292F9
:102830001210A011100B211840807F0830040931BC
:102840002008101010FF1010F04AF8E01A806119EB
:102850001D211A7FFA19074E80FE8282FE0539E19A
:1028600013403F3D20BF403F232A4F05200FFE224B
:102870005A8620102824E324281020202FFF040843
:1028800027110DA01A055F112B02FA3B100A4020F8
:10289000504C434C502040101008184884443F408E
:1028A0004458414E6058474025404042CC2D04C416
:1028B0000404E84204180C3F1048407F40407F4128
:1028C000414120291F1E445454547F043344401472
:1028D0007F20101FFF15151555957E39C0100C90DF
:1028E00020988888E98E8888A8982C024281B64072
:1028F00008844B28102847802A240137FC222222F2
:1029000023222A02013C42827F082B0202111AC2B2
:102910000819E11901190F1A4079590429011130D8
:1029200010201808EAACA8A8AFA8A8ACEA08281894
:102930002A3E383FFF020212221E501BF292012A49
:10294000FE051AF2502C0404FFC81F070404448437
:102950007FD0CA80010112380B020C8060804030A9
:102960000FC8085F180F02027E0180402018060180
:1029700006182040301708488808C8381A90E81907
:10298000EC211E20100C0304291B4380E8413AFE71
:10299000A81AFF354310081C7F2020283A3FBF1299
:1029A000781B02E2FA5AFE041AE2E112FF1D080641
:1029B0000116044B024C421BF8880110090808FF5D
:1029C00008090AC8081480601F100C10201F8040DE
:1029D0002116182641F81D080808F804497E22F03F
:1029E000300F1030101F088848300E014080403FE3
:1029F0001C40301E1A291E299E1118108181412168
:102A0000110D0301030D11214181819F180902FA63
:102A100002FE4020D8173F19222F8047300F106741
:102A20005F1C081621E019FB894019412C404042E7
:102A3000013A7F0619D8171010D0FF90102008FC1B
:102A400024E4242223E21B0403C21F83601F80416D
:102A500026A0228014020CC02EF808484848C21252
:102A60008A2C02027F9820091E925E20173846F1B8
:102A7000158060F8071A3EFC3422223E2201100D18
:102A8000FF2011090503FF0305091120180804049C
:102A900084E41C07240116A4642404041B020160BE
:102AA0002F020242827F0201115D80808292011D0D
:102AB000FE808080A0180C22241048807F04081813
:102AC0002422A0517501E21CE037804020100C0345
:102AD0001D030C30403011151088C4332BBEAA01E1
:102AE0002ABEAF39605B0A126229301C9088865A70
:102AF0001E838C1020402119111318072A40C5414C
:102B0000199F180D5C44C42010E82724E4342CE0FD
:102B100040180E7F10103F80601F09093F49897FD0
:102B2000905342CC92FF2C3F9048432B07185049BA
:102B3000203009FC24A4242222A362280E40201F56
:102B400020584750484542454850C0500CFE0202AC
:102B5000F2121212F20202FE300C7F2020272424EF
:102B6000242720207F151060028C1E445454547F6B
:102B7000041344401D04047E016D3E151515559542
:102B800020180F0C442414040506040414244414CF
:102B90000C601B4041012A7F052A405F197C1E24DE
:102BA000A4643DA653142424041E40300F10136F58
:102BB0001AFF0414121010105DD6B8CEC6C4A3BFFD
:102BC000E9B2E2CAD4B3CCD0F2BCFCCCEDBCD3C9E0
:102BD000BEB3FDD1E9D6A4C7EBB0B4CAD6D5FDB318
:102BE000A3D4D9D2BBB4CEB6D4B1C8C1BDB3C9B9D0
:102BF000A6CAA7B0DCC9FAB0E5BCF5B1A3B4E6C279
:102C0000BCC8EBB5C3B7D6C8B7C8CFB7B5BBD8C774
:102C1000E5BFD5BFE2806020212223242526272876
:102C2000292A2B2C2D2E2F3031323334353637389C
:102C3000393A3B3C3D3E3F4041424344454647488C
:102C4000494A4B4C4D4E4F5051525354555657587C
:102C5000595A5B5C5D5E5F6061626364656667686C
:102C6000696A6B6C6D6E6F7071727374757677785C
:0C2C7000797A7B7C7D7E1AFF01615201A5
:0400000508000149A5
:00000001FF
